{"abi":[{"type":"function","name":"factory","inputs":[],"outputs":[{"name":"","type":"address","internalType":"contract Wrapped1155Factory"}],"stateMutability":"view"},{"type":"function","name":"multiToken","inputs":[],"outputs":[{"name":"","type":"address","internalType":"contract IERC1155"}],"stateMutability":"view"},{"type":"function","name":"tokenId","inputs":[],"outputs":[{"name":"","type":"uint256","internalType":"uint256"}],"stateMutability":"view"}],"bytecode":{"object":"0x608060405234801561001057600080fd5b5060db8061001f6000396000f3fe6080604052348015600f57600080fd5b5060043610603c5760003560e01c806317d70f7c1460415780631904e5c9146059578063c45a015514607b575b600080fd5b60476081565b60408051918252519081900360200190f35b605f6087565b604080516001600160a01b039092168252519081900360200190f35b605f6096565b60025481565b6001546001600160a01b031681565b6000546001600160a01b03168156fea264697066735822122007235f374cbe840b2dafb84598e6747a47e5237cad7571de5b2ea26b87038d8064736f6c634300060c0033","linkReferences":{}},"methodIdentifiers":{"factory()":"c45a0155","multiToken()":"1904e5c9","tokenId()":"17d70f7c"},"id":1}