{"abi":[{"type":"constructor","inputs":[],"stateMutability":"nonpayable"},{"type":"function","name":"batchUnwrap","inputs":[{"name":"multiToken","type":"address","internalType":"contract IERC1155"},{"name":"tokenIds","type":"uint256[]","internalType":"uint256[]"},{"name":"amounts","type":"uint256[]","internalType":"uint256[]"},{"name":"recipient","type":"address","internalType":"address"},{"name":"data","type":"bytes","internalType":"bytes"}],"outputs":[],"stateMutability":"nonpayable"},{"type":"function","name":"erc20Implementation","inputs":[],"outputs":[{"name":"","type":"address","internalType":"contract Wrapped1155"}],"stateMutability":"view"},{"type":"function","name":"getWrapped1155","inputs":[{"name":"multiToken","type":"address","internalType":"contract IERC1155"},{"name":"tokenId","type":"uint256","internalType":"uint256"},{"name":"data","type":"bytes","internalType":"bytes"}],"outputs":[{"name":"","type":"address","internalType":"contract Wrapped1155"}],"stateMutability":"view"},{"type":"function","name":"getWrapped1155DeployBytecode","inputs":[{"name":"multiToken","type":"address","internalType":"contract IERC1155"},{"name":"tokenId","type":"uint256","internalType":"uint256"},{"name":"data","type":"bytes","internalType":"bytes"}],"outputs":[{"name":"","type":"bytes","internalType":"bytes"}],"stateMutability":"view"},{"type":"function","name":"onERC1155BatchReceived","inputs":[{"name":"operator","type":"address","internalType":"address"},{"name":"","type":"address","internalType":"address"},{"name":"ids","type":"uint256[]","internalType":"uint256[]"},{"name":"values","type":"uint256[]","internalType":"uint256[]"},{"name":"data","type":"bytes","internalType":"bytes"}],"outputs":[{"name":"","type":"bytes4","internalType":"bytes4"}],"stateMutability":"nonpayable"},{"type":"function","name":"onERC1155Received","inputs":[{"name":"operator","type":"address","internalType":"address"},{"name":"","type":"address","internalType":"address"},{"name":"id","type":"uint256","internalType":"uint256"},{"name":"value","type":"uint256","internalType":"uint256"},{"name":"data","type":"bytes","internalType":"bytes"}],"outputs":[{"name":"","type":"bytes4","internalType":"bytes4"}],"stateMutability":"nonpayable"},{"type":"function","name":"requireWrapped1155","inputs":[{"name":"multiToken","type":"address","internalType":"contract IERC1155"},{"name":"tokenId","type":"uint256","internalType":"uint256"},{"name":"data","type":"bytes","internalType":"bytes"}],"outputs":[{"name":"","type":"address","internalType":"contract Wrapped1155"}],"stateMutability":"nonpayable"},{"type":"function","name":"supportsInterface","inputs":[{"name":"interfaceId","type":"bytes4","internalType":"bytes4"}],"outputs":[{"name":"","type":"bool","internalType":"bool"}],"stateMutability":"view"},{"type":"function","name":"unwrap","inputs":[{"name":"multiToken","type":"address","internalType":"contract IERC1155"},{"name":"tokenId","type":"uint256","internalType":"uint256"},{"name":"amount","type":"uint256","internalType":"uint256"},{"name":"recipient","type":"address","internalType":"address"},{"name":"data","type":"bytes","internalType":"bytes"}],"outputs":[],"stateMutability":"nonpayable"},{"type":"event","name":"Wrapped1155Creation","inputs":[{"name":"multiToken","type":"address","indexed":true,"internalType":"contract IERC1155"},{"name":"tokenId","type":"uint256","indexed":true,"internalType":"uint256"},{"name":"wrappedToken","type":"address","indexed":true,"internalType":"contract Wrapped1155"}],"anonymous":false}],"bytecode":{"object":"0x608060405234801561001057600080fd5b506100216301ffc9a760e01b61007f565b610031630271189760e51b61007f565b60405161003d90610103565b604051809103906000f080158015610059573d6000803e3d6000fd5b50600180546001600160a01b0319166001600160a01b0392909216919091179055610110565b6001600160e01b031980821614156100de576040805162461bcd60e51b815260206004820152601c60248201527f4552433136353a20696e76616c696420696e7465726661636520696400000000604482015290519081900360640190fd5b6001600160e01b0319166000908152602081905260409020805460ff19166001179055565b610fa68061142f83390190565b6113108061011f6000396000f3fe608060405234801561001057600080fd5b50600436106100935760003560e01c8063901be04111610066578063901be04114610289578063a7eaa18614610291578063bad7b714146103bc578063bc197c81146104b4578063f23a6e61146105f857610093565b806301ffc9a71461009857806308b2ea5e146100d35780633125810e1461017257806352aecb24146101f5575b600080fd5b6100bf600480360360208110156100ae57600080fd5b50356001600160e01b03191661068b565b604080519115158252519081900360200190f35b610156600480360360608110156100e957600080fd5b6001600160a01b0382351691602081013591810190606081016040820135600160201b81111561011857600080fd5b82018360208201111561012a57600080fd5b803590602001918460018302840111600160201b8311171561014b57600080fd5b5090925090506106aa565b604080516001600160a01b039092168252519081900360200190f35b6101566004803603606081101561018857600080fd5b6001600160a01b0382351691602081013591810190606081016040820135600160201b8111156101b757600080fd5b8201836020820111156101c957600080fd5b803590602001918460018302840111600160201b831117156101ea57600080fd5b50909250905061071f565b610287600480360360a081101561020b57600080fd5b6001600160a01b038235811692602081013592604082013592606083013516919081019060a081016080820135600160201b81111561024957600080fd5b82018360208201111561025b57600080fd5b803590602001918460018302840111600160201b8311171561027c57600080fd5b50909250905061083f565b005b61015661097d565b610287600480360360a08110156102a757600080fd5b6001600160a01b038235169190810190604081016020820135600160201b8111156102d157600080fd5b8201836020820111156102e357600080fd5b803590602001918460208302840111600160201b8311171561030457600080fd5b919390929091602081019035600160201b81111561032157600080fd5b82018360208201111561033357600080fd5b803590602001918460208302840111600160201b8311171561035457600080fd5b919390926001600160a01b0383351692604081019060200135600160201b81111561037e57600080fd5b82018360208201111561039057600080fd5b803590602001918460018302840111600160201b831117156103b157600080fd5b50909250905061098c565b61043f600480360360608110156103d257600080fd5b6001600160a01b0382351691602081013591810190606081016040820135600160201b81111561040157600080fd5b82018360208201111561041357600080fd5b803590602001918460018302840111600160201b8311171561043457600080fd5b509092509050610c0a565b6040805160208082528351818301528351919283929083019185019080838360005b83811015610479578181015183820152602001610461565b50505050905090810190601f1680156104a65780820380516001836020036101000a031916815260200191505b509250505060405180910390f35b6105db600480360360a08110156104ca57600080fd5b6001600160a01b038235811692602081013590911691810190606081016040820135600160201b8111156104fd57600080fd5b82018360208201111561050f57600080fd5b803590602001918460208302840111600160201b8311171561053057600080fd5b919390929091602081019035600160201b81111561054d57600080fd5b82018360208201111561055f57600080fd5b803590602001918460208302840111600160201b8311171561058057600080fd5b919390929091602081019035600160201b81111561059d57600080fd5b8201836020820111156105af57600080fd5b803590602001918460018302840111600160201b831117156105d057600080fd5b509092509050610f75565b604080516001600160e01b03199092168252519081900360200190f35b6105db600480360360a081101561060e57600080fd5b6001600160a01b03823581169260208101359091169160408201359160608101359181019060a081016080820135600160201b81111561064d57600080fd5b82018360208201111561065f57600080fd5b803590602001918460018302840111600160201b8311171561068057600080fd5b5090925090506110b9565b6001600160e01b03191660009081526020819052604090205460ff1690565b600060ff306104836106be88888888610c0a565b80519060200120604051602001808560ff1660f81b8152600101846001600160a01b031660601b81526014018381526020018281526020019450505050506040516020818303038152906040528051906020012060001c9050949350505050565b6000606061072f86868686610c0a565b8051602080830191909120604080516001600160f81b0319818501523060601b60218201526104836035820152605580820193909352815180820390930183526075019052805191012090915061078e6001600160a01b03821661114f565b6108355760006104838351602085016000f59050806001600160a01b0316826001600160a01b0316146107f25760405162461bcd60e51b81526004018080602001828103825260248152602001806112656024913960400191505060405180910390fd5b816001600160a01b031687896001600160a01b03167f5cf3a4006b0dcb221517555192a3e5df5e19783c22ea769c1ef46dd421ae2d3260405160405180910390a4505b9695505050505050565b61084b868684846106aa565b6001600160a01b0316639dc29fac33866040518363ffffffff1660e01b815260040180836001600160a01b0316815260200182815260200192505050600060405180830381600087803b1580156108a157600080fd5b505af11580156108b5573d6000803e3d6000fd5b50505050856001600160a01b031663f242432a3085888887876040518763ffffffff1660e01b815260040180876001600160a01b03168152602001866001600160a01b03168152602001858152602001848152602001806020018281038252848482818152602001925080828437600081840152601f19601f820116905080830192505050975050505050505050600060405180830381600087803b15801561095d57600080fd5b505af1158015610971573d6000803e3d6000fd5b50505050505050505050565b6001546001600160a01b031681565b8584146109ca5760405162461bcd60e51b815260040180806020018281038252602b81526020018061123a602b913960400191505060405180910390fd5b806109d6876041611155565b14610a125760405162461bcd60e51b81526004018080602001828103825260318152602001806112aa6031913960400191505060405180910390fd5b60005b86811015610af4576000610a2a826041611155565b90506000610a398260416111b7565b9050610a668b8b8b86818110610a4b57fe5b60200291909101359050610a618486898b611211565b6106aa565b6001600160a01b0316639dc29fac338a8a87818110610a8157fe5b905060200201356040518363ffffffff1660e01b815260040180836001600160a01b0316815260200182815260200192505050600060405180830381600087803b158015610ace57600080fd5b505af1158015610ae2573d6000803e3d6000fd5b505060019094019350610a1592505050565b50876001600160a01b0316632eb2c2d630858a8a8a8a89896040518963ffffffff1660e01b815260040180896001600160a01b03168152602001886001600160a01b0316815260200180602001806020018060200184810384528a8a82818152602001925060200280828437600083820152601f01601f19169091018581038452888152602090810191508990890280828437600083820152601f01601f191690910185810383528681526020019050868680828437600081840152601f19601f8201169050808301925050509b505050505050505050505050600060405180830381600087803b158015610be857600080fd5b505af1158015610bfc573d6000803e3d6000fd5b505050505050505050505050565b606080610c1b602060008587611211565b8080601f01602080910402602001604051908101604052809392919081815260200183838082843760009201919091525092935060609250610c6591506040905060208688611211565b8080601f01602080910402602001604051908101604052809392919081815260200183838082843760009201919091525092935060609250610caf91506041905060408789611211565b8080601f016020809104026020016040519081016040528093929190818152602001838380828437600081840152601f19601f820116905080830192505050505050509050308888858585602c60ab600160009054906101000a90046001600160a01b03166040516020018080607360f81b8152506001018a6001600160a01b031660601b815260140180613d5560f01b81525060020180607360f81b815250600101896001600160a01b031660601b8152601401806260015560e81b81525060030180607f60f81b815250600101888152602001806260025560e81b81525060030180607f60f81b81525060010187805190602001908083835b60208310610dc95780518252601f199092019160209182019101610daa565b51815160209384036101000a60001901801990921691161790526260065560e81b91909301908152607f60f81b60038201528851600490910192890191508083835b60208310610e2a5780518252601f199092019160209182019101610e0b565b51815160209384036101000a60001901801990921691161790526260075560e81b91909301908152600360fd1b60038201528751600490910192880191508083835b60208310610e8b5780518252601f199092019160209182019101610e6c565b5181516020939093036101000a60001901801990911692169190911790526260085560e81b920191825250600360fd1b6003820181905260f895861b6001600160f81b031990811660048401526260405160e81b6005840152608160f81b600884015260098301919091529390941b909216600a840152628239f360e81b600b8401526a3d3d3d3d363d3d37363d7360a81b600e84015260601b6bffffffffffffffffffffffff19166019830152506c5af43d3d93803e602a57fd5bf360981b602d82015260408051808303601a018152603a90920190529e9d5050505050505050505050505050565b600081610f83876041611155565b14610fbf5760405162461bcd60e51b81526004018080602001828103825260318152602001806112aa6031913960400191505060405180910390fd5b8860005b878110156110a2576000610fd8826041611155565b90506000610fe78260416111b7565b9050611014338c8c86818110610ff957fe5b6020029190910135905061100f84868b8d611211565b61071f565b6001600160a01b03166340c10f19858b8b8781811061102f57fe5b905060200201356040518363ffffffff1660e01b815260040180836001600160a01b0316815260200182815260200192505050600060405180830381600087803b15801561107c57600080fd5b505af1158015611090573d6000803e3d6000fd5b505060019094019350610fc392505050565b5063bc197c8160e01b9a9950505050505050505050565b600086816110c93388878761071f565b9050806001600160a01b03166340c10f1983886040518363ffffffff1660e01b815260040180836001600160a01b0316815260200182815260200192505050600060405180830381600087803b15801561112257600080fd5b505af1158015611136573d6000803e3d6000fd5b5063f23a6e6160e01b9c9b505050505050505050505050565b3b151590565b600082611164575060006111b1565b8282028284828161117157fe5b04146111ae5760405162461bcd60e51b81526004018080602001828103825260218152602001806112896021913960400191505060405180910390fd5b90505b92915050565b6000828201838110156111ae576040805162461bcd60e51b815260206004820152601b60248201527f536166654d6174683a206164646974696f6e206f766572666c6f770000000000604482015290519081900360640190fd5b60008085851115611220578182fd5b8386111561122c578182fd5b505082019391909203915056fe5772617070656431313535466163746f72793a206d69736d61746368656420696e707574206172726179735772617070656431313535466163746f72793a206661696c656420746f206465706c6f79536166654d6174683a206d756c7469706c69636174696f6e206f766572666c6f775772617070656431313535466163746f72793a20646174612062797465732073686f756c64206265206964732073697a65a2646970667358221220d5ee0c67a9091ed5ea6f11d3a635866fb80e075ccd3825b040b716666fbad99564736f6c634300060c0033608060405234801561001057600080fd5b50604080518082018252601f81527f57726170706564204552432d3131353520496d706c656d656e746174696f6e006020808301918252835180850190945260048452632ba6aa1560e11b90840152815191929161007091600691610099565b508051610084906007906020840190610099565b50506008805460ff191660121790555061012c565b828054600181600116156101000203166002900490600052602060002090601f016020900481019282601f106100da57805160ff1916838001178555610107565b82800160010185558215610107579182015b828111156101075782518255916020019190600101906100ec565b50610113929150610117565b5090565b5b808211156101135760008155600101610118565b610e6b8061013b6000396000f3fe608060405234801561001057600080fd5b50600436106101005760003560e01c806340c10f1911610097578063a457c2d711610066578063a457c2d714610310578063a9059cbb1461033c578063c45a015514610368578063dd62ed3e1461037057610100565b806340c10f191461028857806370a08231146102b657806395d89b41146102dc5780639dc29fac146102e457610100565b80631904e5c9116100d35780631904e5c9146101e457806323b872dd14610208578063313ce5671461023e578063395093511461025c57610100565b806306fdde0314610105578063095ea7b31461018257806317d70f7c146101c257806318160ddd146101dc575b600080fd5b61010d61039e565b6040805160208082528351818301528351919283929083019185019080838360005b8381101561014757818101518382015260200161012f565b50505050905090810190601f1680156101745780820380516001836020036101000a031916815260200191505b509250505060405180910390f35b6101ae6004803603604081101561019857600080fd5b506001600160a01b038135169060200135610434565b604080519115158252519081900360200190f35b6101ca610451565b60408051918252519081900360200190f35b6101ca610457565b6101ec61045d565b604080516001600160a01b039092168252519081900360200190f35b6101ae6004803603606081101561021e57600080fd5b506001600160a01b0381358116916020810135909116906040013561046c565b6102466104f3565b6040805160ff9092168252519081900360200190f35b6101ae6004803603604081101561027257600080fd5b506001600160a01b0381351690602001356104fc565b6102b46004803603604081101561029e57600080fd5b506001600160a01b03813516906020013561054a565b005b6101ca600480360360208110156102cc57600080fd5b50356001600160a01b03166105a1565b61010d6105bc565b6102b4600480360360408110156102fa57600080fd5b506001600160a01b03813516906020013561061d565b6101ae6004803603604081101561032657600080fd5b506001600160a01b038135169060200135610670565b6101ae6004803603604081101561035257600080fd5b506001600160a01b0381351690602001356106d8565b6101ec6106ec565b6101ca6004803603604081101561038657600080fd5b506001600160a01b03813581169160200135166106fb565b60068054604080516020601f600260001961010060018816150201909516949094049384018190048102820181019092528281526060939092909183018282801561042a5780601f106103ff5761010080835404028352916020019161042a565b820191906000526020600020905b81548152906001019060200180831161040d57829003601f168201915b5050505050905090565b6000610448610441610726565b848461072a565b50600192915050565b60025481565b60055490565b6001546001600160a01b031681565b6000610479848484610816565b6104e984610485610726565b6104e485604051806060016040528060288152602001610d49602891396001600160a01b038a166000908152600460205260408120906104c3610726565b6001600160a01b031681526020810191909152604001600020549190610973565b61072a565b5060019392505050565b60085460ff1690565b6000610448610509610726565b846104e4856004600061051a610726565b6001600160a01b03908116825260208083019390935260409182016000908120918c168152925290205490610a0a565b6000546001600160a01b031633146105935760405162461bcd60e51b8152600401808060200182810382526036815260200180610d926036913960400191505060405180910390fd5b61059d8282610a6b565b5050565b6001600160a01b031660009081526003602052604090205490565b60078054604080516020601f600260001961010060018816150201909516949094049384018190048102820181019092528281526060939092909183018282801561042a5780601f106103ff5761010080835404028352916020019161042a565b6000546001600160a01b031633146106665760405162461bcd60e51b8152600401808060200182810382526036815260200180610d926036913960400191505060405180910390fd5b61059d8282610b5d565b600061044861067d610726565b846104e485604051806060016040528060258152602001610e1160259139600460006106a7610726565b6001600160a01b03908116825260208083019390935260409182016000908120918d16815292529020549190610973565b60006104486106e5610726565b8484610816565b6000546001600160a01b031681565b6001600160a01b03918216600090815260046020908152604080832093909416825291909152205490565b3390565b6001600160a01b03831661076f5760405162461bcd60e51b8152600401808060200182810382526024815260200180610ded6024913960400191505060405180910390fd5b6001600160a01b0382166107b45760405162461bcd60e51b8152600401808060200182810382526022815260200180610d016022913960400191505060405180910390fd5b6001600160a01b03808416600081815260046020908152604080832094871680845294825291829020859055815185815291517f8c5be1e5ebec7d5bd14f71427d1e84f3dd0314c0f7b2291e5b200ac8c7c3b9259281900390910190a3505050565b6001600160a01b03831661085b5760405162461bcd60e51b8152600401808060200182810382526025815260200180610dc86025913960400191505060405180910390fd5b6001600160a01b0382166108a05760405162461bcd60e51b8152600401808060200182810382526023815260200180610cbc6023913960400191505060405180910390fd5b6108ab838383610c59565b6108e881604051806060016040528060268152602001610d23602691396001600160a01b0386166000908152600360205260409020549190610973565b6001600160a01b0380851660009081526003602052604080822093909355908416815220546109179082610a0a565b6001600160a01b0380841660008181526003602090815260409182902094909455805185815290519193928716927fddf252ad1be2c89b69c2b068fc378daa952ba7f163c4a11628f55a4df523b3ef92918290030190a3505050565b60008184841115610a025760405162461bcd60e51b81526004018080602001828103825283818151815260200191508051906020019080838360005b838110156109c75781810151838201526020016109af565b50505050905090810190601f1680156109f45780820380516001836020036101000a031916815260200191505b509250505060405180910390fd5b505050900390565b600082820183811015610a64576040805162461bcd60e51b815260206004820152601b60248201527f536166654d6174683a206164646974696f6e206f766572666c6f770000000000604482015290519081900360640190fd5b9392505050565b6001600160a01b038216610ac6576040805162461bcd60e51b815260206004820152601f60248201527f45524332303a206d696e7420746f20746865207a65726f206164647265737300604482015290519081900360640190fd5b610ad260008383610c59565b600554610adf9082610a0a565b6005556001600160a01b038216600090815260036020526040902054610b059082610a0a565b6001600160a01b03831660008181526003602090815260408083209490945583518581529351929391927fddf252ad1be2c89b69c2b068fc378daa952ba7f163c4a11628f55a4df523b3ef9281900390910190a35050565b6001600160a01b038216610ba25760405162461bcd60e51b8152600401808060200182810382526021815260200180610d716021913960400191505060405180910390fd5b610bae82600083610c59565b610beb81604051806060016040528060228152602001610cdf602291396001600160a01b0385166000908152600360205260409020549190610973565b6001600160a01b038316600090815260036020526040902055600554610c119082610c5e565b6005556040805182815290516000916001600160a01b038516917fddf252ad1be2c89b69c2b068fc378daa952ba7f163c4a11628f55a4df523b3ef9181900360200190a35050565b505050565b600082821115610cb5576040805162461bcd60e51b815260206004820152601e60248201527f536166654d6174683a207375627472616374696f6e206f766572666c6f770000604482015290519081900360640190fd5b5090039056fe45524332303a207472616e7366657220746f20746865207a65726f206164647265737345524332303a206275726e20616d6f756e7420657863656564732062616c616e636545524332303a20617070726f766520746f20746865207a65726f206164647265737345524332303a207472616e7366657220616d6f756e7420657863656564732062616c616e636545524332303a207472616e7366657220616d6f756e74206578636565647320616c6c6f77616e636545524332303a206275726e2066726f6d20746865207a65726f206164647265737357726170706564313135353a206f6e6c7920666163746f727920616c6c6f77656420746f20706572666f726d206f7065726174696f6e45524332303a207472616e736665722066726f6d20746865207a65726f206164647265737345524332303a20617070726f76652066726f6d20746865207a65726f206164647265737345524332303a2064656372656173656420616c6c6f77616e63652062656c6f77207a65726fa264697066735822122035a093f03c17c2df125066ebc4e4503fc6f5c3c1d5ec6f4f0c99ead494ee308264736f6c634300060c0033","linkReferences":{}},"methodIdentifiers":{"batchUnwrap(address,uint256[],uint256[],address,bytes)":"a7eaa186","erc20Implementation()":"901be041","getWrapped1155(address,uint256,bytes)":"08b2ea5e","getWrapped1155DeployBytecode(address,uint256,bytes)":"bad7b714","onERC1155BatchReceived(address,address,uint256[],uint256[],bytes)":"bc197c81","onERC1155Received(address,address,uint256,uint256,bytes)":"f23a6e61","requireWrapped1155(address,uint256,bytes)":"3125810e","supportsInterface(bytes4)":"01ffc9a7","unwrap(address,uint256,uint256,address,bytes)":"52aecb24"},"id":1}