{"abi":[{"type":"constructor","inputs":[],"stateMutability":"nonpayable"},{"type":"function","name":"allowance","inputs":[{"name":"owner","type":"address","internalType":"address"},{"name":"spender","type":"address","internalType":"address"}],"outputs":[{"name":"","type":"uint256","internalType":"uint256"}],"stateMutability":"view"},{"type":"function","name":"approve","inputs":[{"name":"spender","type":"address","internalType":"address"},{"name":"amount","type":"uint256","internalType":"uint256"}],"outputs":[{"name":"","type":"bool","internalType":"bool"}],"stateMutability":"nonpayable"},{"type":"function","name":"balanceOf","inputs":[{"name":"account","type":"address","internalType":"address"}],"outputs":[{"name":"","type":"uint256","internalType":"uint256"}],"stateMutability":"view"},{"type":"function","name":"burn","inputs":[{"name":"account","type":"address","internalType":"address"},{"name":"amount","type":"uint256","internalType":"uint256"}],"outputs":[],"stateMutability":"nonpayable"},{"type":"function","name":"decimals","inputs":[],"outputs":[{"name":"","type":"uint8","internalType":"uint8"}],"stateMutability":"view"},{"type":"function","name":"decreaseAllowance","inputs":[{"name":"spender","type":"address","internalType":"address"},{"name":"subtractedValue","type":"uint256","internalType":"uint256"}],"outputs":[{"name":"","type":"bool","internalType":"bool"}],"stateMutability":"nonpayable"},{"type":"function","name":"factory","inputs":[],"outputs":[{"name":"","type":"address","internalType":"contract Wrapped1155Factory"}],"stateMutability":"view"},{"type":"function","name":"increaseAllowance","inputs":[{"name":"spender","type":"address","internalType":"address"},{"name":"addedValue","type":"uint256","internalType":"uint256"}],"outputs":[{"name":"","type":"bool","internalType":"bool"}],"stateMutability":"nonpayable"},{"type":"function","name":"mint","inputs":[{"name":"account","type":"address","internalType":"address"},{"name":"amount","type":"uint256","internalType":"uint256"}],"outputs":[],"stateMutability":"nonpayable"},{"type":"function","name":"multiToken","inputs":[],"outputs":[{"name":"","type":"address","internalType":"contract IERC1155"}],"stateMutability":"view"},{"type":"function","name":"name","inputs":[],"outputs":[{"name":"","type":"string","internalType":"string"}],"stateMutability":"view"},{"type":"function","name":"symbol","inputs":[],"outputs":[{"name":"","type":"string","internalType":"string"}],"stateMutability":"view"},{"type":"function","name":"tokenId","inputs":[],"outputs":[{"name":"","type":"uint256","internalType":"uint256"}],"stateMutability":"view"},{"type":"function","name":"totalSupply","inputs":[],"outputs":[{"name":"","type":"uint256","internalType":"uint256"}],"stateMutability":"view"},{"type":"function","name":"transfer","inputs":[{"name":"recipient","type":"address","internalType":"address"},{"name":"amount","type":"uint256","internalType":"uint256"}],"outputs":[{"name":"","type":"bool","internalType":"bool"}],"stateMutability":"nonpayable"},{"type":"function","name":"transferFrom","inputs":[{"name":"sender","type":"address","internalType":"address"},{"name":"recipient","type":"address","internalType":"address"},{"name":"amount","type":"uint256","internalType":"uint256"}],"outputs":[{"name":"","type":"bool","internalType":"bool"}],"stateMutability":"nonpayable"},{"type":"event","name":"Approval","inputs":[{"name":"owner","type":"address","indexed":true,"internalType":"address"},{"name":"spender","type":"address","indexed":true,"internalType":"address"},{"name":"value","type":"uint256","indexed":false,"internalType":"uint256"}],"anonymous":false},{"type":"event","name":"Transfer","inputs":[{"name":"from","type":"address","indexed":true,"internalType":"address"},{"name":"to","type":"address","indexed":true,"internalType":"address"},{"name":"value","type":"uint256","indexed":false,"internalType":"uint256"}],"anonymous":false}],"bytecode":{"object":"0x608060405234801561001057600080fd5b50604080518082018252601f81527f57726170706564204552432d3131353520496d706c656d656e746174696f6e006020808301918252835180850190945260048452632ba6aa1560e11b90840152815191929161007091600691610099565b508051610084906007906020840190610099565b50506008805460ff191660121790555061012c565b828054600181600116156101000203166002900490600052602060002090601f016020900481019282601f106100da57805160ff1916838001178555610107565b82800160010185558215610107579182015b828111156101075782518255916020019190600101906100ec565b50610113929150610117565b5090565b5b808211156101135760008155600101610118565b610e6b8061013b6000396000f3fe608060405234801561001057600080fd5b50600436106101005760003560e01c806340c10f1911610097578063a457c2d711610066578063a457c2d714610310578063a9059cbb1461033c578063c45a015514610368578063dd62ed3e1461037057610100565b806340c10f191461028857806370a08231146102b657806395d89b41146102dc5780639dc29fac146102e457610100565b80631904e5c9116100d35780631904e5c9146101e457806323b872dd14610208578063313ce5671461023e578063395093511461025c57610100565b806306fdde0314610105578063095ea7b31461018257806317d70f7c146101c257806318160ddd146101dc575b600080fd5b61010d61039e565b6040805160208082528351818301528351919283929083019185019080838360005b8381101561014757818101518382015260200161012f565b50505050905090810190601f1680156101745780820380516001836020036101000a031916815260200191505b509250505060405180910390f35b6101ae6004803603604081101561019857600080fd5b506001600160a01b038135169060200135610434565b604080519115158252519081900360200190f35b6101ca610451565b60408051918252519081900360200190f35b6101ca610457565b6101ec61045d565b604080516001600160a01b039092168252519081900360200190f35b6101ae6004803603606081101561021e57600080fd5b506001600160a01b0381358116916020810135909116906040013561046c565b6102466104f3565b6040805160ff9092168252519081900360200190f35b6101ae6004803603604081101561027257600080fd5b506001600160a01b0381351690602001356104fc565b6102b46004803603604081101561029e57600080fd5b506001600160a01b03813516906020013561054a565b005b6101ca600480360360208110156102cc57600080fd5b50356001600160a01b03166105a1565b61010d6105bc565b6102b4600480360360408110156102fa57600080fd5b506001600160a01b03813516906020013561061d565b6101ae6004803603604081101561032657600080fd5b506001600160a01b038135169060200135610670565b6101ae6004803603604081101561035257600080fd5b506001600160a01b0381351690602001356106d8565b6101ec6106ec565b6101ca6004803603604081101561038657600080fd5b506001600160a01b03813581169160200135166106fb565b60068054604080516020601f600260001961010060018816150201909516949094049384018190048102820181019092528281526060939092909183018282801561042a5780601f106103ff5761010080835404028352916020019161042a565b820191906000526020600020905b81548152906001019060200180831161040d57829003601f168201915b5050505050905090565b6000610448610441610726565b848461072a565b50600192915050565b60025481565b60055490565b6001546001600160a01b031681565b6000610479848484610816565b6104e984610485610726565b6104e485604051806060016040528060288152602001610d49602891396001600160a01b038a166000908152600460205260408120906104c3610726565b6001600160a01b031681526020810191909152604001600020549190610973565b61072a565b5060019392505050565b60085460ff1690565b6000610448610509610726565b846104e4856004600061051a610726565b6001600160a01b03908116825260208083019390935260409182016000908120918c168152925290205490610a0a565b6000546001600160a01b031633146105935760405162461bcd60e51b8152600401808060200182810382526036815260200180610d926036913960400191505060405180910390fd5b61059d8282610a6b565b5050565b6001600160a01b031660009081526003602052604090205490565b60078054604080516020601f600260001961010060018816150201909516949094049384018190048102820181019092528281526060939092909183018282801561042a5780601f106103ff5761010080835404028352916020019161042a565b6000546001600160a01b031633146106665760405162461bcd60e51b8152600401808060200182810382526036815260200180610d926036913960400191505060405180910390fd5b61059d8282610b5d565b600061044861067d610726565b846104e485604051806060016040528060258152602001610e1160259139600460006106a7610726565b6001600160a01b03908116825260208083019390935260409182016000908120918d16815292529020549190610973565b60006104486106e5610726565b8484610816565b6000546001600160a01b031681565b6001600160a01b03918216600090815260046020908152604080832093909416825291909152205490565b3390565b6001600160a01b03831661076f5760405162461bcd60e51b8152600401808060200182810382526024815260200180610ded6024913960400191505060405180910390fd5b6001600160a01b0382166107b45760405162461bcd60e51b8152600401808060200182810382526022815260200180610d016022913960400191505060405180910390fd5b6001600160a01b03808416600081815260046020908152604080832094871680845294825291829020859055815185815291517f8c5be1e5ebec7d5bd14f71427d1e84f3dd0314c0f7b2291e5b200ac8c7c3b9259281900390910190a3505050565b6001600160a01b03831661085b5760405162461bcd60e51b8152600401808060200182810382526025815260200180610dc86025913960400191505060405180910390fd5b6001600160a01b0382166108a05760405162461bcd60e51b8152600401808060200182810382526023815260200180610cbc6023913960400191505060405180910390fd5b6108ab838383610c59565b6108e881604051806060016040528060268152602001610d23602691396001600160a01b0386166000908152600360205260409020549190610973565b6001600160a01b0380851660009081526003602052604080822093909355908416815220546109179082610a0a565b6001600160a01b0380841660008181526003602090815260409182902094909455805185815290519193928716927fddf252ad1be2c89b69c2b068fc378daa952ba7f163c4a11628f55a4df523b3ef92918290030190a3505050565b60008184841115610a025760405162461bcd60e51b81526004018080602001828103825283818151815260200191508051906020019080838360005b838110156109c75781810151838201526020016109af565b50505050905090810190601f1680156109f45780820380516001836020036101000a031916815260200191505b509250505060405180910390fd5b505050900390565b600082820183811015610a64576040805162461bcd60e51b815260206004820152601b60248201527f536166654d6174683a206164646974696f6e206f766572666c6f770000000000604482015290519081900360640190fd5b9392505050565b6001600160a01b038216610ac6576040805162461bcd60e51b815260206004820152601f60248201527f45524332303a206d696e7420746f20746865207a65726f206164647265737300604482015290519081900360640190fd5b610ad260008383610c59565b600554610adf9082610a0a565b6005556001600160a01b038216600090815260036020526040902054610b059082610a0a565b6001600160a01b03831660008181526003602090815260408083209490945583518581529351929391927fddf252ad1be2c89b69c2b068fc378daa952ba7f163c4a11628f55a4df523b3ef9281900390910190a35050565b6001600160a01b038216610ba25760405162461bcd60e51b8152600401808060200182810382526021815260200180610d716021913960400191505060405180910390fd5b610bae82600083610c59565b610beb81604051806060016040528060228152602001610cdf602291396001600160a01b0385166000908152600360205260409020549190610973565b6001600160a01b038316600090815260036020526040902055600554610c119082610c5e565b6005556040805182815290516000916001600160a01b038516917fddf252ad1be2c89b69c2b068fc378daa952ba7f163c4a11628f55a4df523b3ef9181900360200190a35050565b505050565b600082821115610cb5576040805162461bcd60e51b815260206004820152601e60248201527f536166654d6174683a207375627472616374696f6e206f766572666c6f770000604482015290519081900360640190fd5b5090039056fe45524332303a207472616e7366657220746f20746865207a65726f206164647265737345524332303a206275726e20616d6f756e7420657863656564732062616c616e636545524332303a20617070726f766520746f20746865207a65726f206164647265737345524332303a207472616e7366657220616d6f756e7420657863656564732062616c616e636545524332303a207472616e7366657220616d6f756e74206578636565647320616c6c6f77616e636545524332303a206275726e2066726f6d20746865207a65726f206164647265737357726170706564313135353a206f6e6c7920666163746f727920616c6c6f77656420746f20706572666f726d206f7065726174696f6e45524332303a207472616e736665722066726f6d20746865207a65726f206164647265737345524332303a20617070726f76652066726f6d20746865207a65726f206164647265737345524332303a2064656372656173656420616c6c6f77616e63652062656c6f77207a65726fa264697066735822122035a093f03c17c2df125066ebc4e4503fc6f5c3c1d5ec6f4f0c99ead494ee308264736f6c634300060c0033","linkReferences":{}},"methodIdentifiers":{"allowance(address,address)":"dd62ed3e","approve(address,uint256)":"095ea7b3","balanceOf(address)":"70a08231","burn(address,uint256)":"9dc29fac","decimals()":"313ce567","decreaseAllowance(address,uint256)":"a457c2d7","factory()":"c45a0155","increaseAllowance(address,uint256)":"39509351","mint(address,uint256)":"40c10f19","multiToken()":"1904e5c9","name()":"06fdde03","symbol()":"95d89b41","tokenId()":"17d70f7c","totalSupply()":"18160ddd","transfer(address,uint256)":"a9059cbb","transferFrom(address,address,uint256)":"23b872dd"},"id":1}